:20400000014F01FFFF0000CD1141210040010700CDDC41C9CDDF412E00CDB641211014E50D
:20402000CDAA41210014E5CDAA41CDFF403E05CD07403D20FACD6340CDAB40CD51417676C9
:20404000767676767676CDC44118EA234623234E3E00808128062B2B772B18062B2B2BCDFA
:204060006F41C9114B40CD2941C93E05233D20FC4E3E009128097E4F237E473E00022B3EC0
:20408000052B3D20FC7E0E80A1201FE51100C0234E2346CDF0413688444DE13E05233D202A
:1240A000FC7123703E062B3D20FCC9116A40CD2941C9C2
:0240F8000A00BC
:2040FC0000000011B2403E00014600CDD44121B24022FA40C9ED5BFA400107002AFA40F51F
:20411C003AFC403C32FC40F10922FA40C921B240ED53FD40ED5BF84016007EC6002815DDC0
:20413C00214741DDE5DD2AFD40DDE93E07233D20FC1D20E6C921B240ED5BFC4016007E0610
:20415C0080A020083E07233D20FC1803CD75411D20ECC97E0680B077C901FA403E070B3DEE
:20417C0020FC7995280EE5545D6069C5010700CDDC41E1C13E0002ED43FA403AFC403D327C
:20419C00FC40C93AFC40ED4BF840060091C9E1E3067FED693E40B4ED79C94D21EF417EE6B6
:2041BC00FCB1067FED7977C906F5ED781F30FBC9F1D1E1C1F5EDB0C9120B626B13EDB0C976
:2041DC00EDB0C9F32A3900EBED5621FBC9223800FBEBC98D78E6076778E6F86F0F0F856FBB
:0841FC0029292906000919C94F
:00000001FF
